{
  "_format": "hh-sol-artifact-1",
  "contractName": "RockPaperScissor",
  "sourceName": "contracts/RockPaperScissor.sol",
  "abi": [
    {
      "anonymous": false,
      "inputs": [
        {
          "indexed": false,
          "internalType": "uint256",
          "name": "gameId",
          "type": "uint256"
        },
        {
          "indexed": false,
          "internalType": "address",
          "name": "player1",
          "type": "address"
        },
        {
          "indexed": false,
          "internalType": "address",
          "name": "player2",
          "type": "address"
        },
        {
          "indexed": false,
          "internalType": "uint8",
          "name": "player1Attack",
          "type": "uint8"
        },
        {
          "indexed": false,
          "internalType": "uint8",
          "name": "player2Attack",
          "type": "uint8"
        }
      ],
      "name": "GameReady",
      "type": "event"
    },
    {
      "inputs": [],
      "name": "getGameIds",
      "outputs": [
        {
          "internalType": "uint256[]",
          "name": "",
          "type": "uint256[]"
        }
      ],
      "stateMutability": "view",
      "type": "function"
    },
    {
      "inputs": [],
      "name": "getGames",
      "outputs": [
        {
          "internalType": "uint256[]",
          "name": "",
          "type": "uint256[]"
        },
        {
          "components": [
            {
              "internalType": "address",
              "name": "player1",
              "type": "address"
            },
            {
              "internalType": "address",
              "name": "player2",
              "type": "address"
            },
            {
              "internalType": "uint8",
              "name": "player1Attack",
              "type": "uint8"
            },
            {
              "internalType": "uint8",
              "name": "player2Attack",
              "type": "uint8"
            },
            {
              "internalType": "address",
              "name": "winner",
              "type": "address"
            },
            {
              "internalType": "bool",
              "name": "status",
              "type": "bool"
            }
          ],
          "internalType": "struct RockPaperScissor.Game[]",
          "name": "",
          "type": "tuple[]"
        }
      ],
      "stateMutability": "view",
      "type": "function"
    },
    {
      "inputs": [
        {
          "internalType": "uint256",
          "name": "gameId",
          "type": "uint256"
        },
        {
          "internalType": "uint8",
          "name": "attack",
          "type": "uint8"
        }
      ],
      "name": "joinGame",
      "outputs": [],
      "stateMutability": "nonpayable",
      "type": "function"
    },
    {
      "inputs": [
        {
          "internalType": "uint256",
          "name": "gameId",
          "type": "uint256"
        }
      ],
      "name": "judge",
      "outputs": [],
      "stateMutability": "nonpayable",
      "type": "function"
    },
    {
      "inputs": [],
      "name": "name",
      "outputs": [
        {
          "internalType": "string",
          "name": "",
          "type": "string"
        }
      ],
      "stateMutability": "view",
      "type": "function"
    },
    {
      "inputs": [
        {
          "internalType": "uint8",
          "name": "attack",
          "type": "uint8"
        }
      ],
      "name": "newGame",
      "outputs": [
        {
          "internalType": "uint256",
          "name": "gameId",
          "type": "uint256"
        }
      ],
      "stateMutability": "nonpayable",
      "type": "function"
    },
    {
      "inputs": [],
      "name": "owner",
      "outputs": [
        {
          "internalType": "address",
          "name": "",
          "type": "address"
        }
      ],
      "stateMutability": "view",
      "type": "function"
    },
    {
      "inputs": [],
      "name": "symbol",
      "outputs": [
        {
          "internalType": "string",
          "name": "",
          "type": "string"
        }
      ],
      "stateMutability": "view",
      "type": "function"
    }
  ],
  "bytecode": "0x60806040526040518060400160405280601281526020017f526f636b2050617065722053636973736f7200000000000000000000000000008152506000908161004891906102f0565b506040518060400160405280600381526020017f52505300000000000000000000000000000000000000000000000000000000008152506001908161008d91906102f0565b5034801561009a57600080fd5b506103c2565b600081519050919050565b7f4e487b7100000000000000000000000000000000000000000000000000000000600052604160045260246000fd5b7f4e487b7100000000000000000000000000000000000000000000000000000000600052602260045260246000fd5b6000600282049050600182168061012157607f821691505b602082108103610134576101336100da565b5b50919050565b60008190508160005260206000209050919050565b60006020601f8301049050919050565b600082821b905092915050565b60006008830261019c7fffffffffffffffffffffffffffffffffffffffffffffffffffffffffffffffff8261015f565b6101a6868361015f565b95508019841693508086168417925050509392505050565b6000819050919050565b6000819050919050565b60006101ed6101e86101e3846101be565b6101c8565b6101be565b9050919050565b6000819050919050565b610207836101d2565b61021b610213826101f4565b84845461016c565b825550505050565b600090565b610230610223565b61023b8184846101fe565b505050565b5b8181101561025f57610254600082610228565b600181019050610241565b5050565b601f8211156102a4576102758161013a565b61027e8461014f565b8101602085101561028d578190505b6102a16102998561014f565b830182610240565b50505b505050565b600082821c905092915050565b60006102c7600019846008026102a9565b1980831691505092915050565b60006102e083836102b6565b9150826002028217905092915050565b6102f9826100a0565b67ffffffffffffffff811115610312576103116100ab565b5b61031c8254610109565b610327828285610263565b600060209050601f83116001811461035a5760008415610348578287015190505b61035285826102d4565b8655506103ba565b601f1984166103688661013a565b60005b828110156103905784890151825560018201915060208501945060208101905061036b565b868310156103ad57848901516103a9601f8916826102b6565b8355505b6001600288020188555050505b505050505050565b611762806103d16000396000f3fe608060405234801561001057600080fd5b50600436106100885760003560e01c8063bbf344ce1161005b578063bbf344ce14610105578063c04c594714610135578063ca6649c514610154578063cddb8df21461017057610088565b806306fdde031461008d5780638da5cb5b146100ab57806395d89b41146100c95780639f668bba146100e7575b600080fd5b61009561018c565b6040516100a29190610e13565b60405180910390f35b6100b361021a565b6040516100c09190610e76565b60405180910390f35b6100d1610240565b6040516100de9190610e13565b60405180910390f35b6100ef6102ce565b6040516100fc9190610f59565b60405180910390f35b61011f600480360381019061011a9190610fb9565b610326565b60405161012c9190610ff5565b60405180910390f35b61013d61043e565b60405161014b929190611173565b60405180910390f35b61016e600480360381019061016991906111d6565b6104a5565b005b61018a60048036038101906101859190611216565b6107e2565b005b6000805461019990611272565b80601f01602080910402602001604051908101604052809291908181526020018280546101c590611272565b80156102125780601f106101e757610100808354040283529160200191610212565b820191906000526020600020905b8154815290600101906020018083116101f557829003601f168201915b505050505081565b600260009054906101000a900473ffffffffffffffffffffffffffffffffffffffff1681565b6001805461024d90611272565b80601f016020809104026020016040519081016040528092919081815260200182805461027990611272565b80156102c65780601f1061029b576101008083540402835291602001916102c6565b820191906000526020600020905b8154815290600101906020018083116102a957829003601f168201915b505050505081565b6060600480548060200260200160405190810160405280929190818152602001828054801561031c57602002820191906000526020600020905b815481526020019060010190808311610308575b5050505050905090565b600060018260ff1610158015610340575060038260ff1611155b61037f576040517f08c379a0000000000000000000000000000000000000000000000000000000008152600401610376906112ef565b60405180910390fd5b600360008154809291906103929061133e565b9190505590506000600560008381526020019081526020016000209050338160000160006101000a81548173ffffffffffffffffffffffffffffffffffffffff021916908373ffffffffffffffffffffffffffffffffffffffff160217905550828160010160146101000a81548160ff021916908360ff160217905550600482908060018154018082558091505060019003906000526020600020016000909190919091505550919050565b606080600461044b610ace565b8180548060200260200160405190810160405280929190818152602001828054801561049657602002820191906000526020600020905b815481526020019060010190808311610482575b50505050509150915091509091565b60018160ff16101580156104bd575060038160ff1611155b6104fc576040517f08c379a00000000000000000000000000000000000000000000000000000000081526004016104f3906112ef565b60405180910390fd5b6000600560008481526020019081526020016000209050600073ffffffffffffffffffffffffffffffffffffffff168160000160009054906101000a900473ffffffffffffffffffffffffffffffffffffffff1673ffffffffffffffffffffffffffffffffffffffff16036105a6576040517f08c379a000000000000000000000000000000000000000000000000000000000815260040161059d906113d2565b60405180910390fd5b600073ffffffffffffffffffffffffffffffffffffffff168160010160009054906101000a900473ffffffffffffffffffffffffffffffffffffffff1673ffffffffffffffffffffffffffffffffffffffff1614610639576040517f08c379a00000000000000000000000000000000000000000000000000000000081526004016106309061143e565b60405180910390fd5b8060000160009054906101000a900473ffffffffffffffffffffffffffffffffffffffff1673ffffffffffffffffffffffffffffffffffffffff163373ffffffffffffffffffffffffffffffffffffffff16036106cb576040517f08c379a00000000000000000000000000000000000000000000000000000000081526004016106c2906114aa565b60405180910390fd5b338160010160006101000a81548173ffffffffffffffffffffffffffffffffffffffff021916908373ffffffffffffffffffffffffffffffffffffffff160217905550818160010160156101000a81548160ff021916908360ff160217905550610734836107e2565b7f6877146b370d275d8a0a3d3486656428d231768cafe18c516ac2435bb8d417c4838260000160009054906101000a900473ffffffffffffffffffffffffffffffffffffffff168360010160009054906101000a900473ffffffffffffffffffffffffffffffffffffffff168460010160149054906101000a900460ff168560010160159054906101000a900460ff166040516107d59594939291906114d9565b60405180910390a1505050565b6000600560008381526020019081526020016000209050600073ffffffffffffffffffffffffffffffffffffffff168160000160009054906101000a900473ffffffffffffffffffffffffffffffffffffffff1673ffffffffffffffffffffffffffffffffffffffff160361088c576040517f08c379a0000000000000000000000000000000000000000000000000000000008152600401610883906113d2565b60405180910390fd5b600073ffffffffffffffffffffffffffffffffffffffff168160010160009054906101000a900473ffffffffffffffffffffffffffffffffffffffff1673ffffffffffffffffffffffffffffffffffffffff160361091f576040517f08c379a000000000000000000000000000000000000000000000000000000000815260040161091690611578565b60405180910390fd5b600015158160020160149054906101000a900460ff16151514610977576040517f08c379a000000000000000000000000000000000000000000000000000000000815260040161096e906115e4565b60405180910390fd5b600060038260010160159054906101000a900460ff1660038460010160149054906101000a900460ff166109ab9190611604565b6109b59190611639565b6109bf919061169d565b905060018160ff1603610a38578160000160009054906101000a900473ffffffffffffffffffffffffffffffffffffffff168260020160006101000a81548173ffffffffffffffffffffffffffffffffffffffff021916908373ffffffffffffffffffffffffffffffffffffffff160217905550610aac565b60028160ff1603610aab578160010160009054906101000a900473ffffffffffffffffffffffffffffffffffffffff168260020160006101000a81548173ffffffffffffffffffffffffffffffffffffffff021916908373ffffffffffffffffffffffffffffffffffffffff1602179055505b5b60018260020160146101000a81548160ff021916908315150217905550505050565b6060600060048054905067ffffffffffffffff811115610af157610af06116ce565b5b604051908082528060200260200182016040528015610b2a57816020015b610b17610d03565b815260200190600190039081610b0f5790505b50905060005b600480549050811015610cfb576005600060048381548110610b5557610b546116fd565b5b906000526020600020015481526020019081526020016000206040518060c00160405290816000820160009054906101000a900473ffffffffffffffffffffffffffffffffffffffff1673ffffffffffffffffffffffffffffffffffffffff1673ffffffffffffffffffffffffffffffffffffffff1681526020016001820160009054906101000a900473ffffffffffffffffffffffffffffffffffffffff1673ffffffffffffffffffffffffffffffffffffffff1673ffffffffffffffffffffffffffffffffffffffff1681526020016001820160149054906101000a900460ff1660ff1660ff1681526020016001820160159054906101000a900460ff1660ff1660ff1681526020016002820160009054906101000a900473ffffffffffffffffffffffffffffffffffffffff1673ffffffffffffffffffffffffffffffffffffffff1673ffffffffffffffffffffffffffffffffffffffff1681526020016002820160149054906101000a900460ff161515151581525050828281518110610ce357610ce26116fd565b5b60200260200101819052508080600101915050610b30565b508091505090565b6040518060c00160405280600073ffffffffffffffffffffffffffffffffffffffff168152602001600073ffffffffffffffffffffffffffffffffffffffff168152602001600060ff168152602001600060ff168152602001600073ffffffffffffffffffffffffffffffffffffffff1681526020016000151581525090565b600081519050919050565b600082825260208201905092915050565b60005b83811015610dbd578082015181840152602081019050610da2565b60008484015250505050565b6000601f19601f8301169050919050565b6000610de582610d83565b610def8185610d8e565b9350610dff818560208601610d9f565b610e0881610dc9565b840191505092915050565b60006020820190508181036000830152610e2d8184610dda565b905092915050565b600073ffffffffffffffffffffffffffffffffffffffff82169050919050565b6000610e6082610e35565b9050919050565b610e7081610e55565b82525050565b6000602082019050610e8b6000830184610e67565b92915050565b600081519050919050565b600082825260208201905092915050565b6000819050602082019050919050565b6000819050919050565b610ed081610ebd565b82525050565b6000610ee28383610ec7565b60208301905092915050565b6000602082019050919050565b6000610f0682610e91565b610f108185610e9c565b9350610f1b83610ead565b8060005b83811015610f4c578151610f338882610ed6565b9750610f3e83610eee565b925050600181019050610f1f565b5085935050505092915050565b60006020820190508181036000830152610f738184610efb565b905092915050565b600080fd5b600060ff82169050919050565b610f9681610f80565b8114610fa157600080fd5b50565b600081359050610fb381610f8d565b92915050565b600060208284031215610fcf57610fce610f7b565b5b6000610fdd84828501610fa4565b91505092915050565b610fef81610ebd565b82525050565b600060208201905061100a6000830184610fe6565b92915050565b600081519050919050565b600082825260208201905092915050565b6000819050602082019050919050565b61104581610e55565b82525050565b61105481610f80565b82525050565b60008115159050919050565b61106f8161105a565b82525050565b60c08201600082015161108b600085018261103c565b50602082015161109e602085018261103c565b5060408201516110b1604085018261104b565b5060608201516110c4606085018261104b565b5060808201516110d7608085018261103c565b5060a08201516110ea60a0850182611066565b50505050565b60006110fc8383611075565b60c08301905092915050565b6000602082019050919050565b600061112082611010565b61112a818561101b565b93506111358361102c565b8060005b8381101561116657815161114d88826110f0565b975061115883611108565b925050600181019050611139565b5085935050505092915050565b6000604082019050818103600083015261118d8185610efb565b905081810360208301526111a18184611115565b90509392505050565b6111b381610ebd565b81146111be57600080fd5b50565b6000813590506111d0816111aa565b92915050565b600080604083850312156111ed576111ec610f7b565b5b60006111fb858286016111c1565b925050602061120c85828601610fa4565b9150509250929050565b60006020828403121561122c5761122b610f7b565b5b600061123a848285016111c1565b91505092915050565b7f4e487b7100000000000000000000000000000000000000000000000000000000600052602260045260246000fd5b6000600282049050600182168061128a57607f821691505b60208210810361129d5761129c611243565b5b50919050565b7f496e76616c69642061747461636b000000000000000000000000000000000000600082015250565b60006112d9600e83610d8e565b91506112e4826112a3565b602082019050919050565b60006020820190508181036000830152611308816112cc565b9050919050565b7f4e487b7100000000000000000000000000000000000000000000000000000000600052601160045260246000fd5b600061134982610ebd565b91507fffffffffffffffffffffffffffffffffffffffffffffffffffffffffffffffff820361137b5761137a61130f565b5b600182019050919050565b7f47616d6520646f6573206e6f7420657869737400000000000000000000000000600082015250565b60006113bc601383610d8e565b91506113c782611386565b602082019050919050565b600060208201905081810360008301526113eb816113af565b9050919050565b7f47616d652069732066756c6c0000000000000000000000000000000000000000600082015250565b6000611428600c83610d8e565b9150611433826113f2565b602082019050919050565b600060208201905081810360008301526114578161141b565b9050919050565b7f596f7520617265207468652063726561746f72206f66207468652067616d6500600082015250565b6000611494601f83610d8e565b915061149f8261145e565b602082019050919050565b600060208201905081810360008301526114c381611487565b9050919050565b6114d381610f80565b82525050565b600060a0820190506114ee6000830188610fe6565b6114fb6020830187610e67565b6115086040830186610e67565b61151560608301856114ca565b61152260808301846114ca565b9695505050505050565b7f47616d65206973206e6f742066756c6c00000000000000000000000000000000600082015250565b6000611562601083610d8e565b915061156d8261152c565b602082019050919050565b6000602082019050818103600083015261159181611555565b9050919050565b7f47616d6520697320616c7265616479206a756467656400000000000000000000600082015250565b60006115ce601683610d8e565b91506115d982611598565b602082019050919050565b600060208201905081810360008301526115fd816115c1565b9050919050565b600061160f82610f80565b915061161a83610f80565b9250828201905060ff8111156116335761163261130f565b5b92915050565b600061164482610f80565b915061164f83610f80565b9250828203905060ff8111156116685761166761130f565b5b92915050565b7f4e487b7100000000000000000000000000000000000000000000000000000000600052601260045260246000fd5b60006116a882610f80565b91506116b383610f80565b9250826116c3576116c261166e565b5b828206905092915050565b7f4e487b7100000000000000000000000000000000000000000000000000000000600052604160045260246000fd5b7f4e487b7100000000000000000000000000000000000000000000000000000000600052603260045260246000fdfea26469706673582212208bc357d04e06b635dede5c8c174287fa134e804dc8e77569a5066a691bafb32e64736f6c634300081c0033",
  "linkReferences": {},
  "deployedLinkReferences": {}
}